{
  "_format": "hh-sol-artifact-1",
  "contractName": "FractionalNFT",
  "sourceName": "contracts/FractionalNFTVault.sol",
  "abi": [
    {
      "inputs": [
        {
          "internalType": "address",
          "name": "_nftAddress",
          "type": "address"
        },
        {
          "internalType": "uint256",
          "name": "_tokenId",
          "type": "uint256"
        },
        {
          "internalType": "uint256",
          "name": "_totalFractions",
          "type": "uint256"
        },
        {
          "internalType": "address",
          "name": "_priceFeed",
          "type": "address"
        }
      ],
      "stateMutability": "nonpayable",
      "type": "constructor"
    },
    {
      "inputs": [
        {
          "internalType": "address",
          "name": "spender",
          "type": "address"
        },
        {
          "internalType": "uint256",
          "name": "allowance",
          "type": "uint256"
        },
        {
          "internalType": "uint256",
          "name": "needed",
          "type": "uint256"
        }
      ],
      "name": "ERC20InsufficientAllowance",
      "type": "error"
    },
    {
      "inputs": [
        {
          "internalType": "address",
          "name": "sender",
          "type": "address"
        },
        {
          "internalType": "uint256",
          "name": "balance",
          "type": "uint256"
        },
        {
          "internalType": "uint256",
          "name": "needed",
          "type": "uint256"
        }
      ],
      "name": "ERC20InsufficientBalance",
      "type": "error"
    },
    {
      "inputs": [
        {
          "internalType": "address",
          "name": "approver",
          "type": "address"
        }
      ],
      "name": "ERC20InvalidApprover",
      "type": "error"
    },
    {
      "inputs": [
        {
          "internalType": "address",
          "name": "receiver",
          "type": "address"
        }
      ],
      "name": "ERC20InvalidReceiver",
      "type": "error"
    },
    {
      "inputs": [
        {
          "internalType": "address",
          "name": "sender",
          "type": "address"
        }
      ],
      "name": "ERC20InvalidSender",
      "type": "error"
    },
    {
      "inputs": [
        {
          "internalType": "address",
          "name": "spender",
          "type": "address"
        }
      ],
      "name": "ERC20InvalidSpender",
      "type": "error"
    },
    {
      "anonymous": false,
      "inputs": [
        {
          "indexed": true,
          "internalType": "address",
          "name": "owner",
          "type": "address"
        },
        {
          "indexed": true,
          "internalType": "address",
          "name": "spender",
          "type": "address"
        },
        {
          "indexed": false,
          "internalType": "uint256",
          "name": "value",
          "type": "uint256"
        }
      ],
      "name": "Approval",
      "type": "event"
    },
    {
      "anonymous": false,
      "inputs": [
        {
          "indexed": true,
          "internalType": "address",
          "name": "owner",
          "type": "address"
        },
        {
          "indexed": false,
          "internalType": "uint256",
          "name": "totalFractions",
          "type": "uint256"
        }
      ],
      "name": "Fractionalized",
      "type": "event"
    },
    {
      "anonymous": false,
      "inputs": [
        {
          "indexed": true,
          "internalType": "address",
          "name": "seller",
          "type": "address"
        },
        {
          "indexed": false,
          "internalType": "uint256",
          "name": "amount",
          "type": "uint256"
        },
        {
          "indexed": false,
          "internalType": "uint256",
          "name": "price",
          "type": "uint256"
        }
      ],
      "name": "ListedForSale",
      "type": "event"
    },
    {
      "anonymous": false,
      "inputs": [
        {
          "indexed": true,
          "internalType": "address",
          "name": "buyer",
          "type": "address"
        },
        {
          "indexed": true,
          "internalType": "address",
          "name": "seller",
          "type": "address"
        },
        {
          "indexed": false,
          "internalType": "uint256",
          "name": "amount",
          "type": "uint256"
        },
        {
          "indexed": false,
          "internalType": "uint256",
          "name": "price",
          "type": "uint256"
        }
      ],
      "name": "Purchased",
      "type": "event"
    },
    {
      "anonymous": false,
      "inputs": [
        {
          "indexed": true,
          "internalType": "address",
          "name": "from",
          "type": "address"
        },
        {
          "indexed": true,
          "internalType": "address",
          "name": "to",
          "type": "address"
        },
        {
          "indexed": false,
          "internalType": "uint256",
          "name": "value",
          "type": "uint256"
        }
      ],
      "name": "Transfer",
      "type": "event"
    },
    {
      "inputs": [
        {
          "internalType": "address",
          "name": "owner",
          "type": "address"
        },
        {
          "internalType": "address",
          "name": "spender",
          "type": "address"
        }
      ],
      "name": "allowance",
      "outputs": [
        {
          "internalType": "uint256",
          "name": "",
          "type": "uint256"
        }
      ],
      "stateMutability": "view",
      "type": "function"
    },
    {
      "inputs": [
        {
          "internalType": "address",
          "name": "spender",
          "type": "address"
        },
        {
          "internalType": "uint256",
          "name": "value",
          "type": "uint256"
        }
      ],
      "name": "approve",
      "outputs": [
        {
          "internalType": "bool",
          "name": "",
          "type": "bool"
        }
      ],
      "stateMutability": "nonpayable",
      "type": "function"
    },
    {
      "inputs": [
        {
          "internalType": "address",
          "name": "account",
          "type": "address"
        }
      ],
      "name": "balanceOf",
      "outputs": [
        {
          "internalType": "uint256",
          "name": "",
          "type": "uint256"
        }
      ],
      "stateMutability": "view",
      "type": "function"
    },
    {
      "inputs": [],
      "name": "decimals",
      "outputs": [
        {
          "internalType": "uint8",
          "name": "",
          "type": "uint8"
        }
      ],
      "stateMutability": "view",
      "type": "function"
    },
    {
      "inputs": [],
      "name": "getLatestPrice",
      "outputs": [
        {
          "internalType": "uint256",
          "name": "",
          "type": "uint256"
        }
      ],
      "stateMutability": "view",
      "type": "function"
    },
    {
      "inputs": [
        {
          "internalType": "uint256",
          "name": "amount",
          "type": "uint256"
        },
        {
          "internalType": "uint256",
          "name": "price",
          "type": "uint256"
        }
      ],
      "name": "listForSale",
      "outputs": [],
      "stateMutability": "nonpayable",
      "type": "function"
    },
    {
      "inputs": [],
      "name": "name",
      "outputs": [
        {
          "internalType": "string",
          "name": "",
          "type": "string"
        }
      ],
      "stateMutability": "view",
      "type": "function"
    },
    {
      "inputs": [],
      "name": "nft",
      "outputs": [
        {
          "internalType": "contract IERC721",
          "name": "",
          "type": "address"
        }
      ],
      "stateMutability": "view",
      "type": "function"
    },
    {
      "inputs": [],
      "name": "nftOwner",
      "outputs": [
        {
          "internalType": "address",
          "name": "",
          "type": "address"
        }
      ],
      "stateMutability": "view",
      "type": "function"
    },
    {
      "inputs": [
        {
          "internalType": "uint256",
          "name": "saleId",
          "type": "uint256"
        },
        {
          "internalType": "uint256",
          "name": "amount",
          "type": "uint256"
        }
      ],
      "name": "purchase",
      "outputs": [],
      "stateMutability": "payable",
      "type": "function"
    },
    {
      "inputs": [],
      "name": "redeemNFT",
      "outputs": [],
      "stateMutability": "nonpayable",
      "type": "function"
    },
    {
      "inputs": [],
      "name": "saleCounter",
      "outputs": [
        {
          "internalType": "uint256",
          "name": "",
          "type": "uint256"
        }
      ],
      "stateMutability": "view",
      "type": "function"
    },
    {
      "inputs": [
        {
          "internalType": "uint256",
          "name": "",
          "type": "uint256"
        }
      ],
      "name": "sales",
      "outputs": [
        {
          "internalType": "address",
          "name": "seller",
          "type": "address"
        },
        {
          "internalType": "uint256",
          "name": "amount",
          "type": "uint256"
        },
        {
          "internalType": "uint256",
          "name": "price",
          "type": "uint256"
        }
      ],
      "stateMutability": "view",
      "type": "function"
    },
    {
      "inputs": [],
      "name": "symbol",
      "outputs": [
        {
          "internalType": "string",
          "name": "",
          "type": "string"
        }
      ],
      "stateMutability": "view",
      "type": "function"
    },
    {
      "inputs": [],
      "name": "tokenId",
      "outputs": [
        {
          "internalType": "uint256",
          "name": "",
          "type": "uint256"
        }
      ],
      "stateMutability": "view",
      "type": "function"
    },
    {
      "inputs": [],
      "name": "totalFractions",
      "outputs": [
        {
          "internalType": "uint256",
          "name": "",
          "type": "uint256"
        }
      ],
      "stateMutability": "view",
      "type": "function"
    },
    {
      "inputs": [],
      "name": "totalSupply",
      "outputs": [
        {
          "internalType": "uint256",
          "name": "",
          "type": "uint256"
        }
      ],
      "stateMutability": "view",
      "type": "function"
    },
    {
      "inputs": [
        {
          "internalType": "address",
          "name": "to",
          "type": "address"
        },
        {
          "internalType": "uint256",
          "name": "value",
          "type": "uint256"
        }
      ],
      "name": "transfer",
      "outputs": [
        {
          "internalType": "bool",
          "name": "",
          "type": "bool"
        }
      ],
      "stateMutability": "nonpayable",
      "type": "function"
    },
    {
      "inputs": [
        {
          "internalType": "address",
          "name": "from",
          "type": "address"
        },
        {
          "internalType": "address",
          "name": "to",
          "type": "address"
        },
        {
          "internalType": "uint256",
          "name": "value",
          "type": "uint256"
        }
      ],
      "name": "transferFrom",
      "outputs": [
        {
          "internalType": "bool",
          "name": "",
          "type": "bool"
        }
      ],
      "stateMutability": "nonpayable",
      "type": "function"
    }
  ],
  "bytecode": "0x608060405234801561001057600080fd5b50604051612710380380612710833981810160405281019061003291906105cf565b6040518060400160405280600d81526020017f4672616374696f6e616c4e4654000000000000000000000000000000000000008152506040518060400160405280600481526020017f464e46540000000000000000000000000000000000000000000000000000000081525081600390816100ad919061087c565b5080600490816100bd919061087c565b50505083600560006101000a81548173ffffffffffffffffffffffffffffffffffffffff021916908373ffffffffffffffffffffffffffffffffffffffff160217905550826006819055508160078190555033600860006101000a81548173ffffffffffffffffffffffffffffffffffffffff021916908373ffffffffffffffffffffffffffffffffffffffff16021790555080600960006101000a81548173ffffffffffffffffffffffffffffffffffffffff021916908373ffffffffffffffffffffffffffffffffffffffff160217905550600560009054906101000a900473ffffffffffffffffffffffffffffffffffffffff1673ffffffffffffffffffffffffffffffffffffffff166323b872dd3330866040518463ffffffff1660e01b81526004016101f09392919061096c565b600060405180830381600087803b15801561020a57600080fd5b505af115801561021e573d6000803e3d6000fd5b50505050610232338361028960201b60201c565b3373ffffffffffffffffffffffffffffffffffffffff167f4356f3fd5c3bfc18a01590adcccb99d62f10c4096f5200887c659cc52043e2548360405161027891906109a3565b60405180910390a250505050610a73565b600073ffffffffffffffffffffffffffffffffffffffff168273ffffffffffffffffffffffffffffffffffffffff16036102fb5760006040517fec442f050000000000000000000000000000000000000000000000000000000081526004016102f291906109be565b60405180910390fd5b61030d6000838361031160201b60201c565b5050565b600073ffffffffffffffffffffffffffffffffffffffff168373ffffffffffffffffffffffffffffffffffffffff16036103635780600260008282546103579190610a08565b92505081905550610436565b60008060008573ffffffffffffffffffffffffffffffffffffffff1673ffffffffffffffffffffffffffffffffffffffff168152602001908152602001600020549050818110156103ef578381836040517fe450d38c0000000000000000000000000000000000000000000000000000000081526004016103e693929190610a3c565b60405180910390fd5b8181036000808673ffffffffffffffffffffffffffffffffffffffff1673ffffffffffffffffffffffffffffffffffffffff16815260200190815260200160002081905550505b600073ffffffffffffffffffffffffffffffffffffffff168273ffffffffffffffffffffffffffffffffffffffff160361047f57806002600082825403925050819055506104cc565b806000808473ffffffffffffffffffffffffffffffffffffffff1673ffffffffffffffffffffffffffffffffffffffff168152602001908152602001600020600082825401925050819055505b8173ffffffffffffffffffffffffffffffffffffffff168373ffffffffffffffffffffffffffffffffffffffff167fddf252ad1be2c89b69c2b068fc378daa952ba7f163c4a11628f55a4df523b3ef8360405161052991906109a3565b60405180910390a3505050565b600080fd5b600073ffffffffffffffffffffffffffffffffffffffff82169050919050565b60006105668261053b565b9050919050565b6105768161055b565b811461058157600080fd5b50565b6000815190506105938161056d565b92915050565b6000819050919050565b6105ac81610599565b81146105b757600080fd5b50565b6000815190506105c9816105a3565b92915050565b600080600080608085870312156105e9576105e8610536565b5b60006105f787828801610584565b9450506020610608878288016105ba565b9350506040610619878288016105ba565b925050606061062a87828801610584565b91505092959194509250565b600081519050919050565b7f4e487b7100000000000000000000000000000000000000000000000000000000600052604160045260246000fd5b7f4e487b7100000000000000000000000000000000000000000000000000000000600052602260045260246000fd5b600060028204905060018216806106b757607f821691505b6020821081036106ca576106c9610670565b5b50919050565b60008190508160005260206000209050919050565b60006020601f8301049050919050565b600082821b905092915050565b6000600883026107327fffffffffffffffffffffffffffffffffffffffffffffffffffffffffffffffff826106f5565b61073c86836106f5565b95508019841693508086168417925050509392505050565b6000819050919050565b600061077961077461076f84610599565b610754565b610599565b9050919050565b6000819050919050565b6107938361075e565b6107a761079f82610780565b848454610702565b825550505050565b600090565b6107bc6107af565b6107c781848461078a565b505050565b5b818110156107eb576107e06000826107b4565b6001810190506107cd565b5050565b601f82111561083057610801816106d0565b61080a846106e5565b81016020851015610819578190505b61082d610825856106e5565b8301826107cc565b50505b505050565b600082821c905092915050565b600061085360001984600802610835565b1980831691505092915050565b600061086c8383610842565b9150826002028217905092915050565b61088582610636565b67ffffffffffffffff81111561089e5761089d610641565b5b6108a8825461069f565b6108b38282856107ef565b600060209050601f8311600181146108e657600084156108d4578287015190505b6108de8582610860565b865550610946565b601f1984166108f4866106d0565b60005b8281101561091c578489015182556001820191506020850194506020810190506108f7565b868310156109395784890151610935601f891682610842565b8355505b6001600288020188555050505b505050505050565b6109578161055b565b82525050565b61096681610599565b82525050565b6000606082019050610981600083018661094e565b61098e602083018561094e565b61099b604083018461095d565b949350505050565b60006020820190506109b8600083018461095d565b92915050565b60006020820190506109d3600083018461094e565b92915050565b7f4e487b7100000000000000000000000000000000000000000000000000000000600052601160045260246000fd5b6000610a1382610599565b9150610a1e83610599565b9250828201905080821115610a3657610a356109d9565b5b92915050565b6000606082019050610a51600083018661094e565b610a5e602083018561095d565b610a6b604083018461095d565b949350505050565b611c8e80610a826000396000f3fe6080604052600436106101145760003560e01c806370876c98116100a057806395d89b411161006457806395d89b4114610386578063a9059cbb146103b1578063b5f522f7146103ee578063dd62ed3e1461042d578063e80d7fec1461046a57610114565b806370876c98146102c057806370a08231146102dc57806377262d38146103195780637edb1b5d146103305780638e15f4731461035b57610114565b806318160ddd116100e757806318160ddd146101d757806323b872dd14610202578063313ce5671461023f57806347ccca021461026a5780634c39a7491461029557610114565b80630387b0a21461011957806306fdde0314610144578063095ea7b31461016f57806317d70f7c146101ac575b600080fd5b34801561012557600080fd5b5061012e610493565b60405161013b9190611370565b60405180910390f35b34801561015057600080fd5b50610159610499565b604051610166919061141b565b60405180910390f35b34801561017b57600080fd5b50610196600480360381019061019191906114cc565b61052b565b6040516101a39190611527565b60405180910390f35b3480156101b857600080fd5b506101c161054e565b6040516101ce9190611370565b60405180910390f35b3480156101e357600080fd5b506101ec610554565b6040516101f99190611370565b60405180910390f35b34801561020e57600080fd5b5061022960048036038101906102249190611542565b61055e565b6040516102369190611527565b60405180910390f35b34801561024b57600080fd5b5061025461058d565b60405161026191906115b1565b60405180910390f35b34801561027657600080fd5b5061027f610596565b60405161028c919061162b565b60405180910390f35b3480156102a157600080fd5b506102aa6105bc565b6040516102b79190611655565b60405180910390f35b6102da60048036038101906102d59190611670565b6105e2565b005b3480156102e857600080fd5b5061030360048036038101906102fe91906116b0565b610863565b6040516103109190611370565b60405180910390f35b34801561032557600080fd5b5061032e6108ab565b005b34801561033c57600080fd5b506103456109a2565b6040516103529190611370565b60405180910390f35b34801561036757600080fd5b506103706109a8565b60405161037d9190611370565b60405180910390f35b34801561039257600080fd5b5061039b610a59565b6040516103a8919061141b565b60405180910390f35b3480156103bd57600080fd5b506103d860048036038101906103d391906114cc565b610aeb565b6040516103e59190611527565b60405180910390f35b3480156103fa57600080fd5b50610415600480360381019061041091906116dd565b610b0e565b6040516104249392919061170a565b60405180910390f35b34801561043957600080fd5b50610454600480360381019061044f9190611741565b610b58565b6040516104619190611370565b60405180910390f35b34801561047657600080fd5b50610491600480360381019061048c9190611670565b610bdf565b005b600b5481565b6060600380546104a8906117b0565b80601f01602080910402602001604051908101604052809291908181526020018280546104d4906117b0565b80156105215780601f106104f657610100808354040283529160200191610521565b820191906000526020600020905b81548152906001019060200180831161050457829003601f168201915b5050505050905090565b600080610536610d37565b9050610543818585610d3f565b600191505092915050565b60065481565b6000600254905090565b600080610569610d37565b9050610576858285610d51565b610581858585610de5565b60019150509392505050565b60006012905090565b600560009054906101000a900473ffffffffffffffffffffffffffffffffffffffff1681565b600860009054906101000a900473ffffffffffffffffffffffffffffffffffffffff1681565b6000600a600084815260200190815260200160002090508181600101541015610640576040517f08c379a00000000000000000000000000000000000000000000000000000000081526004016106379061182d565b60405180910390fd5b600061064a6109a8565b9050600081670de0b6b3a7640000858560020154610668919061187c565b610672919061187c565b61067c91906118ed565b9050803410156106c1576040517f08c379a00000000000000000000000000000000000000000000000000000000081526004016106b89061196a565b60405180910390fd5b6106f08360000160009054906101000a900473ffffffffffffffffffffffffffffffffffffffff163386610de5565b838360010154610700919061198a565b8360010181905550600083600101540361076257600a6000868152602001908152602001600020600080820160006101000a81549073ffffffffffffffffffffffffffffffffffffffff02191690556001820160009055600282016000905550505b8260000160009054906101000a900473ffffffffffffffffffffffffffffffffffffffff1673ffffffffffffffffffffffffffffffffffffffff166108fc829081150290604051600060405180830381858888f193505050501580156107cc573d6000803e3d6000fd5b508260000160009054906101000a900473ffffffffffffffffffffffffffffffffffffffff1673ffffffffffffffffffffffffffffffffffffffff163373ffffffffffffffffffffffffffffffffffffffff167fa326259ec721617acd3cb2a00bcbeac91eefe409880e49aa2bbf473ed648da498686600201546040516108549291906119be565b60405180910390a35050505050565b60008060008373ffffffffffffffffffffffffffffffffffffffff1673ffffffffffffffffffffffffffffffffffffffff168152602001908152602001600020549050919050565b6108b3610554565b6108bc33610863565b146108fc576040517f08c379a00000000000000000000000000000000000000000000000000000000081526004016108f390611a59565b60405180910390fd5b61090d33610908610554565b610ed9565b600560009054906101000a900473ffffffffffffffffffffffffffffffffffffffff1673ffffffffffffffffffffffffffffffffffffffff166323b872dd30336006546040518463ffffffff1660e01b815260040161096e93929190611a79565b600060405180830381600087803b15801561098857600080fd5b505af115801561099c573d6000803e3d6000fd5b50505050565b60075481565b600080600960009054906101000a900473ffffffffffffffffffffffffffffffffffffffff1673ffffffffffffffffffffffffffffffffffffffff1663feaf968c6040518163ffffffff1660e01b815260040160a060405180830381865afa158015610a18573d6000803e3d6000fd5b505050506040513d601f19601f82011682018060405250810190610a3c9190611b3d565b5050509150506402540be40081610a53919061187c565b91505090565b606060048054610a68906117b0565b80601f0160208091040260200160405190810160405280929190818152602001828054610a94906117b0565b8015610ae15780601f10610ab657610100808354040283529160200191610ae1565b820191906000526020600020905b815481529060010190602001808311610ac457829003601f168201915b5050505050905090565b600080610af6610d37565b9050610b03818585610de5565b600191505092915050565b600a6020528060005260406000206000915090508060000160009054906101000a900473ffffffffffffffffffffffffffffffffffffffff16908060010154908060020154905083565b6000600160008473ffffffffffffffffffffffffffffffffffffffff1673ffffffffffffffffffffffffffffffffffffffff16815260200190815260200160002060008373ffffffffffffffffffffffffffffffffffffffff1673ffffffffffffffffffffffffffffffffffffffff16815260200190815260200160002054905092915050565b81610be933610863565b1015610c2a576040517f08c379a0000000000000000000000000000000000000000000000000000000008152600401610c2190611c04565b60405180910390fd5b60405180606001604052803373ffffffffffffffffffffffffffffffffffffffff16815260200183815260200182815250600a6000600b54815260200190815260200160002060008201518160000160006101000a81548173ffffffffffffffffffffffffffffffffffffffff021916908373ffffffffffffffffffffffffffffffffffffffff16021790555060208201518160010155604082015181600201559050503373ffffffffffffffffffffffffffffffffffffffff167fd8e0b128fee17f55fcc09b80146a7c91a1aa841f3dfbb2171e6fff11f71a9ab08383604051610d169291906119be565b60405180910390a26001600b54610d2d9190611c24565b600b819055505050565b600033905090565b610d4c8383836001610f5b565b505050565b6000610d5d8484610b58565b90507fffffffffffffffffffffffffffffffffffffffffffffffffffffffffffffffff8114610ddf5781811015610dcf578281836040517ffb8f41b2000000000000000000000000000000000000000000000000000000008152600401610dc69392919061170a565b60405180910390fd5b610dde84848484036000610f5b565b5b50505050565b600073ffffffffffffffffffffffffffffffffffffffff168373ffffffffffffffffffffffffffffffffffffffff1603610e575760006040517f96c6fd1e000000000000000000000000000000000000000000000000000000008152600401610e4e9190611655565b60405180910390fd5b600073ffffffffffffffffffffffffffffffffffffffff168273ffffffffffffffffffffffffffffffffffffffff1603610ec95760006040517fec442f05000000000000000000000000000000000000000000000000000000008152600401610ec09190611655565b60405180910390fd5b610ed4838383611132565b505050565b600073ffffffffffffffffffffffffffffffffffffffff168273ffffffffffffffffffffffffffffffffffffffff1603610f4b5760006040517f96c6fd1e000000000000000000000000000000000000000000000000000000008152600401610f429190611655565b60405180910390fd5b610f5782600083611132565b5050565b600073ffffffffffffffffffffffffffffffffffffffff168473ffffffffffffffffffffffffffffffffffffffff1603610fcd5760006040517fe602df05000000000000000000000000000000000000000000000000000000008152600401610fc49190611655565b60405180910390fd5b600073ffffffffffffffffffffffffffffffffffffffff168373ffffffffffffffffffffffffffffffffffffffff160361103f5760006040517f94280d620000000000000000000000000000000000000000000000000000000081526004016110369190611655565b60405180910390fd5b81600160008673ffffffffffffffffffffffffffffffffffffffff1673ffffffffffffffffffffffffffffffffffffffff16815260200190815260200160002060008573ffffffffffffffffffffffffffffffffffffffff1673ffffffffffffffffffffffffffffffffffffffff16815260200190815260200160002081905550801561112c578273ffffffffffffffffffffffffffffffffffffffff168473ffffffffffffffffffffffffffffffffffffffff167f8c5be1e5ebec7d5bd14f71427d1e84f3dd0314c0f7b2291e5b200ac8c7c3b925846040516111239190611370565b60405180910390a35b50505050565b600073ffffffffffffffffffffffffffffffffffffffff168373ffffffffffffffffffffffffffffffffffffffff16036111845780600260008282546111789190611c24565b92505081905550611257565b60008060008573ffffffffffffffffffffffffffffffffffffffff1673ffffffffffffffffffffffffffffffffffffffff16815260200190815260200160002054905081811015611210578381836040517fe450d38c0000000000000000000000000000000000000000000000000000000081526004016112079392919061170a565b60405180910390fd5b8181036000808673ffffffffffffffffffffffffffffffffffffffff1673ffffffffffffffffffffffffffffffffffffffff16815260200190815260200160002081905550505b600073ffffffffffffffffffffffffffffffffffffffff168273ffffffffffffffffffffffffffffffffffffffff16036112a057806002600082825403925050819055506112ed565b806000808473ffffffffffffffffffffffffffffffffffffffff1673ffffffffffffffffffffffffffffffffffffffff168152602001908152602001600020600082825401925050819055505b8173ffffffffffffffffffffffffffffffffffffffff168373ffffffffffffffffffffffffffffffffffffffff167fddf252ad1be2c89b69c2b068fc378daa952ba7f163c4a11628f55a4df523b3ef8360405161134a9190611370565b60405180910390a3505050565b6000819050919050565b61136a81611357565b82525050565b60006020820190506113856000830184611361565b92915050565b600081519050919050565b600082825260208201905092915050565b60005b838110156113c55780820151818401526020810190506113aa565b60008484015250505050565b6000601f19601f8301169050919050565b60006113ed8261138b565b6113f78185611396565b93506114078185602086016113a7565b611410816113d1565b840191505092915050565b6000602082019050818103600083015261143581846113e2565b905092915050565b600080fd5b600073ffffffffffffffffffffffffffffffffffffffff82169050919050565b600061146d82611442565b9050919050565b61147d81611462565b811461148857600080fd5b50565b60008135905061149a81611474565b92915050565b6114a981611357565b81146114b457600080fd5b50565b6000813590506114c6816114a0565b92915050565b600080604083850312156114e3576114e261143d565b5b60006114f18582860161148b565b9250506020611502858286016114b7565b9150509250929050565b60008115159050919050565b6115218161150c565b82525050565b600060208201905061153c6000830184611518565b92915050565b60008060006060848603121561155b5761155a61143d565b5b60006115698682870161148b565b935050602061157a8682870161148b565b925050604061158b868287016114b7565b9150509250925092565b600060ff82169050919050565b6115ab81611595565b82525050565b60006020820190506115c660008301846115a2565b92915050565b6000819050919050565b60006115f16115ec6115e784611442565b6115cc565b611442565b9050919050565b6000611603826115d6565b9050919050565b6000611615826115f8565b9050919050565b6116258161160a565b82525050565b6000602082019050611640600083018461161c565b92915050565b61164f81611462565b82525050565b600060208201905061166a6000830184611646565b92915050565b600080604083850312156116875761168661143d565b5b6000611695858286016114b7565b92505060206116a6858286016114b7565b9150509250929050565b6000602082840312156116c6576116c561143d565b5b60006116d48482850161148b565b91505092915050565b6000602082840312156116f3576116f261143d565b5b6000611701848285016114b7565b91505092915050565b600060608201905061171f6000830186611646565b61172c6020830185611361565b6117396040830184611361565b949350505050565b600080604083850312156117585761175761143d565b5b60006117668582860161148b565b92505060206117778582860161148b565b9150509250929050565b7f4e487b7100000000000000000000000000000000000000000000000000000000600052602260045260246000fd5b600060028204905060018216806117c857607f821691505b6020821081036117db576117da611781565b5b50919050565b7f4e6f7420656e6f756768206672616374696f6e7320666f722073616c65000000600082015250565b6000611817601d83611396565b9150611822826117e1565b602082019050919050565b600060208201905081810360008301526118468161180a565b9050919050565b7f4e487b7100000000000000000000000000000000000000000000000000000000600052601160045260246000fd5b600061188782611357565b915061189283611357565b92508282026118a081611357565b915082820484148315176118b7576118b661184d565b5b5092915050565b7f4e487b7100000000000000000000000000000000000000000000000000000000600052601260045260246000fd5b60006118f882611357565b915061190383611357565b925082611913576119126118be565b5b828204905092915050565b7f4e6f7420656e6f7567682065746865722073656e740000000000000000000000600082015250565b6000611954601583611396565b915061195f8261191e565b602082019050919050565b6000602082019050818103600083015261198381611947565b9050919050565b600061199582611357565b91506119a083611357565b92508282039050818111156119b8576119b761184d565b5b92915050565b60006040820190506119d36000830185611361565b6119e06020830184611361565b9392505050565b7f4d757374206f776e20616c6c206672616374696f6e7320746f2072656465656d60008201527f204e465400000000000000000000000000000000000000000000000000000000602082015250565b6000611a43602483611396565b9150611a4e826119e7565b604082019050919050565b60006020820190508181036000830152611a7281611a36565b9050919050565b6000606082019050611a8e6000830186611646565b611a9b6020830185611646565b611aa86040830184611361565b949350505050565b600069ffffffffffffffffffff82169050919050565b611acf81611ab0565b8114611ada57600080fd5b50565b600081519050611aec81611ac6565b92915050565b6000819050919050565b611b0581611af2565b8114611b1057600080fd5b50565b600081519050611b2281611afc565b92915050565b600081519050611b37816114a0565b92915050565b600080600080600060a08688031215611b5957611b5861143d565b5b6000611b6788828901611add565b9550506020611b7888828901611b13565b9450506040611b8988828901611b28565b9350506060611b9a88828901611b28565b9250506080611bab88828901611add565b9150509295509295909350565b7f4e6f7420656e6f756768206672616374696f6e73000000000000000000000000600082015250565b6000611bee601483611396565b9150611bf982611bb8565b602082019050919050565b60006020820190508181036000830152611c1d81611be1565b9050919050565b6000611c2f82611357565b9150611c3a83611357565b9250828201905080821115611c5257611c5161184d565b5b9291505056fea26469706673582212200b345b64b8b94140c25db227af0b6d0db013518be62a4f6e08d2415a3158ec9364736f6c63430008190033",
  "linkReferences": {},
  "deployedLinkReferences": {}
}